:100000000208DC759850438920438780758DFAD2A9
:100010008ED29CC29FD29ED2AFD2ACD2BC22020B57
:01002000CD12
:10002300020760BB010689828A83E0225002E7222D
:10003300BBFE02E32289828A83E49322BC000BBEC7
:100043000029EF8DF084FFADF022E4CCF875F008C1
:10005300EF2FFFEE33FEEC33FCEE9DEC984005FCF6
:10006300EE9DFE0FD5F0E9E4CEFD22EDF8F5F0EEBE
:100073008420D21CFEADF075F008EF2FFFED33FDA9
:100083004007985006D5F0F222C398FD0FD5F0EA49
:1000930022E3F5F009E208B5F06D606B80F3E3F558
:1000A300F009E608B5F060605E80F387F009E608C2
:1000B300B5F054605280F487F009E208B5F0486067
:1000C3004680F488828C8387F009E0A3B5F038601A
:1000D3003680F488828C8387F009E493A3B5F027F4
:1000E300602580F388828C83E3F5F009E0A3B5F003
:1000F30016601480F388828C83E3F5F009E493A3FC
:10010300B5F004600280F20201BF808580E7808E33
:1001130080D2803C8015806C807E809B80B5808BF4
:1001230080A1804F8070803A0201CB89828A83EC60
:10013300FAE493F5F0A3C8C582C8CCC583CCE49395
:10014300A3C8C582C8CCC583CCB5F070606E80E10E
:1001530089828A83E493F5F0A3E208B5F05E605CDC
:1001630080F289828A83E0F5F0A3E608B5F04D605A
:100173004B80F389828A83E0F5F0A3E208B5F03C73
:10018300603A80F389828A83E493F5F0A3E608B5A5
:10019300F02A602880F2805389828A83ECFAE49300
:1001A300F5F0A3C8C582C8CCC583CCE0A3C8C5827B
:1001B300C8CCC583CCB5F004600280E27FFFB5F004
:1001C300020F2240027F012289828A83ECFAE0F542
:1001D300F0A3C8C582C8CCC583CCE0A3C8C582C878
:1001E300CCC583CCB5F0D560D380E389828A83EC18
:1001F300FAE0F5F0A3C8C582C8CCC583CCE493A3C9
:10020300C8C582C8CCC583CCB5F0B160AF80E288E5
:10021300F0ED2402B4040050A3F582EB2402B404ED
:10022300005099232345822390010D73E709F608B3
:1002330070FA8046E709F20870FA803E88828C8360
:10024300E709F0A370FA807EE309F60870FA807676
:10025300E309F20870FA806E88828C83E309F0A3C5
:1002630070FA806289828A83E0A3F60870FA805666
:1002730089828A83E0A3F20870FA804A80D280FAE6
:1002830080C680D4806580F28031801080A680EAA9
:10029300809A80A880DA80E280CA803189828A834A
:1002A300ECFAE493A3C8C582C8CCC583CCF0A3C839
:1002B300C582C8CCC583CC70E9800D89828A83E46A
:1002C30093A3F60870F9ECFAA9F0EDFB2289828A70
:1002D30083ECFAE0A3C8C582C8CCC583CCF0A3C81D
:1002E300C582C8CCC583CC70EA80DD89828A83E469
:1002F30093A3F20870F980CE88F0ED2402B40400D1
:1003030050C4F582EB2402B4040050BA232345827F
:100313002390027F73EF4E6012EF60010EEDBB017D
:100323000B89828A83F0A3DFFCDEFA2289F050076F
:10033300F709DFFCA9F022BBFEFCF309DFFCA9F0FF
:1003430022BB010689828A83F0225002F722BBFE78
:1003530001F322BB010CE58229F582E5833AF5839B
:10036300E0225006E92582F8E622BBFE06E9258253
:10037300F8E222E58229F582E5833AF583E49322C4
:10038300E4F50AF5097580AA7822F6087C00FD7B5E
:10039300FF7A05790A1202FB7822E66401600C7F7A
:1003A300C87E00120B676380FF80ED7F2C7E0112F5
:1003B3000B677BFF7A067904120B907FC87E0012CD
:1003C3000B677F41120BC178137C067DFF7B007A9C
:1003D300007923120212EF60127FC87E00120B67AE
:1003E3006380FF7822E6B402DE80ADE4F5807F64AB
:1003F300FE120B67120B4C120B4C6380FF7E007FC7
:100403001E7D007B007A0079231203187822E664AC
:100413000270030204FEE509D3940540030204FEBF
:100423007822E6B4031505097E007F1E7D007B005C
:100433007A007923120318E47822F67B007A007994
:1004430023120BACC3EF940BEE940050767B007A2F
:10045300007923120BACD3EF9408EE94004064753B
:100463000EFF750F067510237B007A00792312099E
:1004730068781E7C067DFF120212EF7046750EFF30
:10048300750F05751035FBFAF9120968AF01A80756
:10049300750EFF750F057510357B007A0079001214
:1004A3000968AF01A807E6F4F58078237C007D0096
:1004B3007BFF7A05790A1202FBE47822F67F32FE8B
:1004C300120B677F327E00120B67050AE50AD3948D
:1004D30064500302040F750EFF750F057510237525
:1004E30011007512C87BFF7A067904120AA6500B15
:1004F3007FFF120BC1E4F50A02040F7580FF7BFF37
:100503007A067925020B90457261736500302C439E
:100513004F4E4E45435400302C434C4F53454400FB
:100523004552524F520064656661756C7435000D17
:100533000A003A00C4E3CAC7CBADA3BF00CED2BE04
:10054300CDCAC7CED200C4E3B4D3C4C4C0B4A3BF1E
:1005530000CED2B4D3C0B4B4A6C0B400C4E3B5BD16
:10056300C4C4C8A5A3BF00CED2B5BDC8A5B4A6C890
:10057300A50041542B5253540072656164790041C4
:10058300544530004F4B0041540041542B43574DC9
:100593004F44453D320041542B43495041503D2285
:1005A3003139322E3136382E312E31220041542B3F
:1005B30043575341505F4355523D22475441574A95
:1005C3005F57585F30325F303031222C2231323363
:1005D30034353637383930222C352C332C322C3005
:1005E3000041542B4349504D55583D310041542B44
:1005F3004349505345525645523D312C38383838CB
:100603000041542B43495053454E443D302C310057
:100613002B4950442C302C333A41002B4950440091
:100623002C0069276D206F757400FF050AFF051004
:10063300FF051AFF0523FF05297580FF7FF47E015F
:10064300120B67750EFF750F0575107C7511077515
:1006530012D07BFF7A057975120AA640DC7580FEFD
:100663007FF47E01120B67750CFF750D05750E8700
:10067300750F007510C875110A7BFF7A0579821210
:100683000AFF40B57580FC750CFF750D05750E8767
:10069300750F007510C875110A7BFF7A05798A12E8
:1006A3000AFF40957580F8750CFF750D05750E876B
:1006B300750F007510C875110A7BFF7A05798D12C5
:1006C3000AFF500302063C7580F0750CFF750D059B
:1006D300750E87750F007510C875110A7BFF7A05B3
:1006E3007999120AFF500302063C7580E0750CFFEE
:1006F300750D05750E87750F0275105875110A7BF8
:10070300FF7A0579B0120AFF500302063C7580C0D8
:10071300750CFF750D05750E87750F007510C8757F
:10072300110A7BFF7A0579E4120AFF500302063CA3
:10073300758080750CFF750D05750E87750F007537
:1007430010C875110A7BFF7A0579F0120AFF50036E
:1007530002063CE4F5807FE87E03020B67C0E0C03D
:10076300F0C083C082C0D075D000C000C001C002F9
:10077300C003C004C005C006C007209803020821B7
:10078300C298E599640D7039F508E50875F003A47E
:10079300242DF582E43406F583E493FB740193FA84
:1007A300740293F978237C007D00120212EF700823
:1007B300D2007822A60880660508E508B405CB8038
:1007C3005DE599640A60537821E67039750801C3C1
:1007D3007403950875F01EA4FF2405F9E4FAFBC021
:1007E3000174232FF9E4A801FCFDD0011202FB05DB
:1007F30008E508B403D97E007F1E7D007B007A00E4
:1008030079231203187821E6062423F8A699782180
:10081300E6D3941C40087600800478217600D00744
:10082300D006D005D004D003D002D001D000D0D060
:10083300D082D083D0F0D0E0322096236100000034
:1008430000000000000000000000000000000000A5
:100853000000000000000000000062000000000033
:100863000000000000000000000000000000000085
:100873000000000000000000630000000000000012
:100883000000000000000000000000000000000065
:1008930000000000000064000000000000000000F1
:1008A3000000000000000000000000000000000045
:1008B30000000000650000000000000000000000D0
:1008C3000000000000000000000000000000000025
:1008D30000000122FF01210000787FE4F6D8FD75B6
:1008E30081B802092302001EE493A3F8E493A34012
:1008F30003F68001F208DFF48029E493A3F8540798
:10090300240CC8C333C4540F4420C8834004F45692
:10091300800146F6DFE4800B0102040810204080CA
:1009230090083CE47E019360BCA3FF543F30E5098B
:10093300541FFEE493A360010ECF54C025E060A8CA
:1009430040B8E493A3FAE493A3F8E493A3C8C5825D
:10095300C8CAC583CAF0A3C8C582C8CAC583CADFCB
:10096300E9DEE780BE8B0B8A0C890DE94A4B7009DF
:10097300851A0B851B0C851C0DE50D450C450B706D
:1009830002802C850E14850F15851016AB0BAA0C4F
:10099300A90D1209E8EF250DF50DEE350CF50CAB9D
:1009A3000BFAA90D120026700AF51AF51BF51CFBAC
:1009B300FAF922850E14850F15851016AB0BAA0CB8
:1009C300A90D120A498B1A8A1B891CEA494B600E2E
:1009D300E412034404251CF51CE4351BF51BAB0B87
:1009E300AA0CA90D228B118A128913E4F517F518A5
:1009F300E4FEFFAB14AA15A9168F828E8312035649
:100A0300FD6013AB11AA12A9131200266D60070F24
:100A1300BF00010E80DDAB14AA15A9168F828E8349
:100A23001203567002801A0518E51870020517ABF9
:100A3300110513E51370020512F9AA1212002670AC
:100A4300AFAE17AF18228B118A128913851417853D
:100A53001518851619AB17AA18A919120026FF60D5
:100A630019AB11AA12A9131200266F600D74012588
:100A730019F519E43518F51880DBAB17AA18A9196D
:100A83001200266007AB11AA12A91322AB1105139A
:100A9300E513AA127002051214F912002670ADFBB9
:100AA300FAF922751300751401120B63120B90A847
:100AB30010AC0FAD0E7B007A007923120212EF60A7
:100AC300277FC87E00120B67AE11AF127C007DC872
:100AD30012003FD3E5149FE5139E4002D322051471
:100AE300E51470CB051380C778237C007D007BFF62
:100AF3007A05790A1202FB120B63C3228B098A0A55
:100B0300890B751201120B63A80EAC0DAD0C7B00A3
:100B13007A007923120212EF601BAB09AA0AA90B10
:100B2300120B90AF10AE0F120B670512E512D3959F
:100B33001140D5D32278237C007D007BFF7A057991
:100B43000A1202FB120B63C3226380FF7F647E00E1
:100B5300120B676380FF7F647E00120B676380FF65
:100B63007F647E00D3EF9400EE940040147D6E7C8E
:100B730000ED1D70011CED4C70F7EF1F70E61E8039
:100B8300E3227B00120B907BFF7A05793212002659
:100B9300FF600C120BC1740129F9E43AFA80EE7F6D
:100BA3000D120BC17F0A020BC1E4FFFE1200266087
:100BB3000C0FEF70010E09E970F20A80EF22C2AC4C
:100BC3008F993099FDC299D2AC2212000312063CD0
:030BD30002038397
:00000001FF
